{
  "_format": "hh-sol-artifact-1",
  "contractName": "Fundraise",
  "sourceName": "contracts/Fundraise.sol",
  "abi": [
    {
      "inputs": [],
      "stateMutability": "nonpayable",
      "type": "constructor"
    },
    {
      "inputs": [
        {
          "internalType": "string",
          "name": "name",
          "type": "string"
        },
        {
          "internalType": "string",
          "name": "message",
          "type": "string"
        }
      ],
      "name": "donate",
      "outputs": [],
      "stateMutability": "payable",
      "type": "function"
    },
    {
      "inputs": [
        {
          "internalType": "uint256",
          "name": "",
          "type": "uint256"
        }
      ],
      "name": "memos",
      "outputs": [
        {
          "internalType": "string",
          "name": "name",
          "type": "string"
        },
        {
          "internalType": "string",
          "name": "message",
          "type": "string"
        },
        {
          "internalType": "uint256",
          "name": "timestamp",
          "type": "uint256"
        },
        {
          "internalType": "address",
          "name": "from",
          "type": "address"
        }
      ],
      "stateMutability": "view",
      "type": "function"
    }
  ],
  "bytecode": "0x608060405234801561001057600080fd5b5033600160006101000a81548173ffffffffffffffffffffffffffffffffffffffff021916908373ffffffffffffffffffffffffffffffffffffffff160217905550610a4a806100616000396000f3fe6080604052600436106100295760003560e01c80631653441c1461002e578063e8dfdf041461004a575b600080fd5b61004860048036038101906100439190610484565b61008a565b005b34801561005657600080fd5b50610071600480360381019061006c919061053b565b6102a5565b6040516100819493929190610648565b60405180910390f35b600034116100cd576040517f08c379a00000000000000000000000000000000000000000000000000000000081526004016100c4906106e7565b60405180910390fd5b600160009054906101000a900473ffffffffffffffffffffffffffffffffffffffff1673ffffffffffffffffffffffffffffffffffffffff166108fc349081150290604051600060405180830381858888f19350505050158015610135573d6000803e3d6000fd5b506000604051806080016040528086868080601f016020809104026020016040519081016040528093929190818152602001838380828437600081840152601f19601f82011690508083019250505050505050815260200184848080601f016020809104026020016040519081016040528093929190818152602001838380828437600081840152601f19601f8201169050808301925050505050505081526020014281526020013373ffffffffffffffffffffffffffffffffffffffff16815250908060018154018082558091505060019003906000526020600020906004020160009091909190915060008201518160000190816102359190610942565b50602082015181600101908161024b9190610942565b506040820151816002015560608201518160030160006101000a81548173ffffffffffffffffffffffffffffffffffffffff021916908373ffffffffffffffffffffffffffffffffffffffff160217905550505050505050565b600081815481106102b557600080fd5b90600052602060002090600402016000915090508060000180546102d890610765565b80601f016020809104026020016040519081016040528092919081815260200182805461030490610765565b80156103515780601f1061032657610100808354040283529160200191610351565b820191906000526020600020905b81548152906001019060200180831161033457829003601f168201915b50505050509080600101805461036690610765565b80601f016020809104026020016040519081016040528092919081815260200182805461039290610765565b80156103df5780601f106103b4576101008083540402835291602001916103df565b820191906000526020600020905b8154815290600101906020018083116103c257829003601f168201915b5050505050908060020154908060030160009054906101000a900473ffffffffffffffffffffffffffffffffffffffff16905084565b600080fd5b600080fd5b600080fd5b600080fd5b600080fd5b60008083601f8401126104445761044361041f565b5b8235905067ffffffffffffffff81111561046157610460610424565b5b60208301915083600182028301111561047d5761047c610429565b5b9250929050565b6000806000806040858703121561049e5761049d610415565b5b600085013567ffffffffffffffff8111156104bc576104bb61041a565b5b6104c88782880161042e565b9450945050602085013567ffffffffffffffff8111156104eb576104ea61041a565b5b6104f78782880161042e565b925092505092959194509250565b6000819050919050565b61051881610505565b811461052357600080fd5b50565b6000813590506105358161050f565b92915050565b60006020828403121561055157610550610415565b5b600061055f84828501610526565b91505092915050565b600081519050919050565b600082825260208201905092915050565b60005b838110156105a2578082015181840152602081019050610587565b60008484015250505050565b6000601f19601f8301169050919050565b60006105ca82610568565b6105d48185610573565b93506105e4818560208601610584565b6105ed816105ae565b840191505092915050565b61060181610505565b82525050565b600073ffffffffffffffffffffffffffffffffffffffff82169050919050565b600061063282610607565b9050919050565b61064281610627565b82525050565b6000608082019050818103600083015261066281876105bf565b9050818103602083015261067681866105bf565b905061068560408301856105f8565b6106926060830184610639565b95945050505050565b7f506c6561736520706179206d6f7265207468616e203020536f6e696300000000600082015250565b60006106d1601c83610573565b91506106dc8261069b565b602082019050919050565b60006020820190508181036000830152610700816106c4565b9050919050565b7f4e487b7100000000000000000000000000000000000000000000000000000000600052604160045260246000fd5b7f4e487b7100000000000000000000000000000000000000000000000000000000600052602260045260246000fd5b6000600282049050600182168061077d57607f821691505b6020821081036107905761078f610736565b5b50919050565b60008190508160005260206000209050919050565b60006020601f8301049050919050565b600082821b905092915050565b6000600883026107f87fffffffffffffffffffffffffffffffffffffffffffffffffffffffffffffffff826107bb565b61080286836107bb565b95508019841693508086168417925050509392505050565b6000819050919050565b600061083f61083a61083584610505565b61081a565b610505565b9050919050565b6000819050919050565b61085983610824565b61086d61086582610846565b8484546107c8565b825550505050565b600090565b610882610875565b61088d818484610850565b505050565b5b818110156108b1576108a660008261087a565b600181019050610893565b5050565b601f8211156108f6576108c781610796565b6108d0846107ab565b810160208510156108df578190505b6108f36108eb856107ab565b830182610892565b50505b505050565b600082821c905092915050565b6000610919600019846008026108fb565b1980831691505092915050565b60006109328383610908565b9150826002028217905092915050565b61094b82610568565b67ffffffffffffffff81111561096457610963610707565b5b61096e8254610765565b6109798282856108b5565b600060209050601f8311600181146109ac576000841561099a578287015190505b6109a48582610926565b865550610a0c565b601f1984166109ba86610796565b60005b828110156109e2578489015182556001820191506020850194506020810190506109bd565b868310156109ff57848901516109fb601f891682610908565b8355505b6001600288020188555050505b50505050505056fea2646970667358221220c30e199c4f994b0914b31a97e115dd90961e2a18b977baaaec5c0fe50526ee0264736f6c63430008180033",
  "linkReferences": {},
  "deployedLinkReferences": {}
}